:020000040800F2
:10000000E0AF02204D020008F7100008A71000081A
:10001000F5100008FD02000831140008000000007F
:1000200000000000000000000000000001120008B5
:10003000FF020008000000001911000889120008E2
:1000400067020008670200086702000867020008EC
:1000500067020008670200086702000867020008DC
:1000600067020008670200086702000867020008CC
:1000700067020008670200086702000867020008BC
:1000800067020008670200086702000867020008AC
:10009000670200086702000867020008670200089C
:1000A000670200086702000867020008670200088C
:1000B000670200086702000867020008670200087C
:1000C000670200086702000867020008670200086C
:1000D00067020008ED1300086702000867020008C5
:1000E000670200086702000867020008670200084C
:1000F000670200086702000867020008670200083C
:10010000670200086702000867020008670200082B
:10011000670200086702000867020008670200081B
:10012000670200086702000867020008670200080B
:1001300067020008670200086702000867020008FB
:1001400067020008670200086702000867020008EB
:1001500067020008670200086702000867020008DB
:1001600067020008670200086702000867020008CB
:10017000670200086702000867020008000000002C
:1001800067020008670200086702000867020008AB
:10019000670200086702000867020008670200089B
:1001A00067020008670200086702000800F002F812
:1001B00000F03CF80AA090E8000C82448344AAF1C5
:1001C0000107DA4501D100F031F8AFF2090EBAE8C3
:1001D0000F0013F0010F18BFFB1A43F0010318477B
:1001E000E013000000140000103A24BF78C878C162
:1001F000FAD8520724BF30C830C144BF04680C602D
:10020000704700000023002400250026103A28BF74
:1002100078C1FBD8520728BF30C148BF0B60704778
:100220001FB501F0ADF91FBD10B510BD00F033F8DA
:100230001146FFF7F5FF01F02FF900F051F803B474
:10024000FFF7F2FF03BC01F0F4F800000948804713
:1002500009480047FEE7FEE7FEE7FEE7FEE7FEE7A8
:10026000FEE7FEE7FEE7FEE704480549054A064BC0
:10027000704700008D120008AD010008E0A90220BF
:10028000E0AF0220E0AB0220E0AB022070477047F5
:10029000704770477047754600F02CF8AE46050071
:1002A0006946534620F00700854618B020B5FFF791
:1002B000DBFFBDE820404FF000064FF000074FF095
:1002C00000084FF0000B21F00701AC46ACE8C00974
:1002D000ACE8C009ACE8C009ACE8C0098D4670477D
:1002E00010B50446AFF300802046BDE81040FFF78C
:1002F000A6BF00000048704780A90220FEE77047B3
:1003000030B5D1E901231A43D1E9033423431A4319
:100310004B690D681A438B691A43D1E90734012DE3
:10032000496A05686FF30E0505D01A4322430A4354
:100330002A43026008E0234329430B4341680360DA
:100340006FF30E010A434260002030BD426942EA69
:100350004101416100207047F8B514460546D1E9D6
:10036000000210438A686FF01F03C96803EB421252
:1003700042EA412108430090286100F043F9064613
:1003800009E0601C07D024B100F03CF9801BA042BA
:1003900001D90320F8BDA8698006F2D40020F8BD79
:1003A000F0B56FF00F05D1E9003405EB04145B1EC6
:1003B0002E0123438C682F0306EB04244FEA054CDF
:1003C00023430D8A8E8ACC68097E4FF07F4E07EB5F
:1003D00005450CEB06560EEB0161012A0CD0826834
:1003E0003F1107EB043423432B43334302F07042A5
:1003F0000B43134383600FE0C2682B430B4302F0AF
:1004000070428168134301F070422103A1F58051CD
:1004100031431143C36081600020F0BD2DE9F84FE6
:10042000DFF8A091002209F1040A0AF1040B4FF051
:100430000F080BF1040E01260B6896403340B342BF
:1004400071D14C68022C01D0122C11D1D40800EBD0
:1004500084073D6A5407E40E08FA04FC25EA0C05FB
:10046000D1F810C00CFA04FC4CEA050CC7F820C007
:1004700007685400032591F804C0A5400CF0030C54
:10048000AF430CFA04FC4CEA070CC0F800C04F68FC
:10049000012F05D0022F03D0112F01D0122F11D11F
:1004A0008768D1F80CC0AF430CFA04FC4CEA070C87
:1004B000C0F808C04768B7430E79C6F300169640E7
:1004C0003E434660C668AE438D68A5403543C5606F
:1004D0004C68E4006FD53C4C256845F480452560A8
:1004E000246822F0030504F480440094374C2E194C
:1004F000D6F808789407250F08FA05F4A743344C7A
:10050000A04201D100242EE0324CA04201D10124AE
:1005100029E0314CA04201D1022424E02F4CA0421A
:1005200002D103241FE046E02D4CA04201D1042457
:1005300019E02C4CA04201D1052414E02A4CA04221
:1005400001D106240FE0294CA04201D107240AE082
:10055000274CA04201D1082405E0264CA04201D13D
:10056000092400E00A24AC403C43C6F80848D9F806
:1005700000404D464E689C43F60300D51C432C605A
:10058000DAF8004055464E689C43B60300D51C433C
:100590002C60DBF800405D464E689C43F60200D5B7
:1005A0001C432C60DEF8004075464E689C43B60242
:1005B00000D51C432C60521C102AFFF43CAFBDE850
:1005C000F88F0000003C01404438024000300140F8
:1005D000000002400004024000080240000C0240FB
:1005E000001002400014024000180240001C0240AB
:1005F00000200240002402400AB1816170470904D2
:10060000FBE7000001480068704700004000002040
:1006100002480168491C016070470000400000204A
:100620000B4810B5016841F400710160016841F4A4
:1006300080610160016841F480710160052000F073
:100640003FF80F2000F006F800F015F8002010BD6C
:10065000003C024010B5044600F08CF94FF47A716A
:10066000B0FBF1F000F02CFC00222146501E00F0FF
:1006700007F8002010BD08B50020009008BD00005C
:10068000F0B40E4B1B68C3F30223C3F10704042C20
:1006900000D904241D1D072D01D2002300E0DB1E1C
:1006A000012606FA04F56D1E0D409D409E40761E03
:1006B000164045EA0601F0BC00F01EBD0CED00E05E
:1006C000064A00F0070110684FF6FF03184040EAA1
:1006D0000120034908431060704700000CED00E062
:1006E0000000FA052DE9F8431D48016841F08051EA
:1006F00001600068012700F080500090380490FAF3
:10070000A0F0DFF86080B0FA80F048F82070FFF7C2
:1007100079FF04464FF47A75134E04E0FFF772FF39
:10072000001BA84213D87068C003F7D54FF40030FF
:1007300090FAA0F0B0FA80F048F82070FFF762FF5E
:10074000044607E0FFF75EFF001BA84202D9032022
:10075000BDE8F88370688003F4D50020F8E7000056
:100760004038024000000E42007000402DE9F05F6A
:10077000DFF8F8A104460F46DAF80000DFF8F08150
:1007800000F00F02C8B27A49814641F2883608F17A
:100790000808BA4261D202468AF80020DAF800005E
:1007A00000F00F00B8427DD12078800707D5D8F837
:1007B0000020A36822F0F0021A43C8F80020207835
:1007C000C0072DD0606801281AD002281BD003284A
:1007D00019D009688907002964DAD8F8001047465B
:1007E00021F003010143C8F80010FFF70BFF054695
:1007F000606801280FD0022818D003281CD027E0F9
:1008000009688903E7E709688901E4E7FFF7FAFE69
:10081000401BB04258D83868C0F381000128F5D198
:1008200088E0FFF7EFFE401BB0424DD83868C0F3B8
:1008300081000228F5D17DE03868FFF7E3FE401B18
:10084000B042F9D940E0FFF7DDFE401BB0423BD893
:10085000386810F00C0FF6D16CE02078800707D5CF
:10086000D8F80020A36822F0F0021A43C8F800204C
:100870002078C0074CD06068012828D0022829D0F1
:10088000032827D009688907002949DAD8F8002009
:1008900022F003020243C8F80020FFF7B3FE05462A
:1008A000606800E03CE001281DD0022829D0032820
:1008B00038D0B3464646306810F00C0F28D0FFF70A
:1008C000A1FE411B5945F6D90320BDE8F09F0968F8
:1008D0008903D9E709688901D6E7FFF793FE411B31
:1008E000594502D9F0E7B34646463068C0F3810067
:1008F0000128F2D10CE0FFF785FE411B594502D9D2
:10090000E2E7B34646463068C0F381000228F2D1E0
:100910008AF80090DAF8000000F00F00B84209D021
:100920000120D2E744462068FFF76CFE401BB0422E
:10093000F9D9C9E72078400707D5D8F80010E26850
:1009400021F4E0511143C8F800102078000708D5C1
:10095000D8F80010226921F4604141EAC201C8F8C8
:1009600000100F20FFF776FE0020AEE7003C0240AB
:100970000038024010B500F017F808490968F02265
:1009800092FAA2F201F0F001B2FA82F2D140044AE6
:10099000515CC8400349086010BD0000083802409F
:1009A000B01500080000002030B51948006810F0AC
:1009B0000C01184812D0184C04290ED008290DD16A
:1009C000134A121F1168136801F03F015D0247F6D8
:1009D000C07304D5B4FBF1F003E0204630BDB0FB9A
:1009E000F1F01168194093FAA3F3B3FA83F3D940F5
:1009F000484311684FF4403292FAA2F201F44031B8
:100A0000B2FA82F2D140491C4900B0FBF1F030BD8E
:100A1000083802400024F40040787D012DE9F84FA9
:100A200004460078DFF8FCA2BF4DC0074FF0000677
:100A300048D0DAF800105046C1F38101012908D0EE
:100A40000068C0F3810002280AD1281D0068400216
:100A500006D52868800335D56068002873D031E05A
:100A6000DFF8C49209F1020989F80060FFF7CAFDB6
:100A7000074641F2883804E0FFF7C4FDC11B414539
:100A80007AD828688003F7D4207989F80000606854
:100A900060B1FFF7B7FD074604E0FFF7B3FDC11BE8
:100AA0004145EDD828688003F7D50BE0FFF7AAFD94
:100AB000074604E0FFF7A6FDC11B4145E0D82868C2
:100AC0008003F7D42078DFF86492800744D5DAF801
:100AD0000010504611F00C0F4FF0F80809D00068D4
:100AE000C0F3810002280BD18E48001F006840022D
:100AF00006D42868800714D5E068012823D110E0C7
:100B0000E068D0B10120C9F80000FFF77BFD07467F
:100B100004E0FFF777FDC01B6428B1D82868800780
:100B2000F7D5286898FAA8F22169B2FA82F220F083
:100B3000F8009140084328600EE0C9F80060FFF714
:100B400061FD074605E0EAE0FFF75CFDC01B642895
:100B500012D828688007F7D42078000725D5DFF859
:100B6000C4817348616908F16C0881B10121016099
:100B7000FFF748FD074605E07EE0FFF743FDC01B99
:100B8000642879D8D8F800008007F6D50DE0066013
:100B9000FFF738FD074604E0FFF734FDC01B64286B
:100BA0006AD8D8F800008007F6D42078400753D5DB
:100BB0005C483830016841F0805101600068DFF81E
:100BC000748100F080500090D8F8001041F48071DA
:100BD000C8F80010FFF716FD074604E0FFF712FD06
:100BE000C01B642848D8D8F80000C005F6D5DFF847
:100BF00034B10BF1680B8BF80060FFF703FD07467B
:100C000041F2883804E0FFF7FDFCC11B41457ED866
:100C1000DBF800008007F6D4207A8BF80000A0688B
:100C200068B1FFF7EFFC074604E0FFF7EBFCC11BE0
:100C300041456CD8DBF800008007F6D50CE0FFF7E3
:100C4000E1FC074604E0FFF7DDFCC11B41455ED82F
:100C5000DBF800008007F6D4A069E8B3DAF80010EA
:100C6000C1F3810102295AD0022806D0C9F8606078
:100C7000FFF7C8FC04464DE049E04F46C9F8606004
:100C8000FFF7C0FC064604E0FFF7BCFC801B6428AD
:100C90003DD828688001F7D4D4E90701084347F616
:100CA000C07191FAA1F1626AB1FA81F18A40A16A38
:100CB0004FF0FF3303EB51014FF4403393FAA3F3AA
:100CC000B3FA83F399400A4310434FF0706292FAEB
:100CD000A2F2B2FA82F200E01FE0E16A914008431A
:100CE0001049091F086001203866FFF78BFC044695
:100CF00004E0FFF787FC001B642808D828688001FF
:100D0000F7D50AE0FFF77EFC001B642802D9032018
:100D1000BDE8F88F28688001F4D40020F8E70120AE
:100D2000F6E7000008380240003802400000474261
:100D3000800E47420070004070B50D46040003D09D
:100D400094F82C0010B107E0012070BD002084F859
:100D50002D00204600F012F8022084F82C00211DFE
:100D60002068FFF7CDFAD4E900022946FFF718FB07
:100D7000012084F82C00002070BD0000304800B530
:100D8000016887B041F001010160006800F00100D6
:100D900005902B480838016841F0040101600168A2
:100DA00001F004010591016841F00801016001684A
:100DB00001F008010591016841F01001016001682E
:100DC00001F010010591016841F020010160016806
:100DD00001F020010591016841F0400101600068C7
:100DE000694600F0400005900D200090022001901F
:100DF00001200290032003900C2004901148FFF77B
:100E00000DFB4CF20370009069460F48FFF706FB9C
:100E10004FF68370009069460C48FFF7FFFA4FF6D3
:100E20003F00009069460A48FFF7F8FA48F2371089
:100E3000009069460748FFF7F1FA07B000BD0000CF
:100E40003838024000080240000C02400010024006
:100E5000001402400018024010B5044690F82C001F
:100E6000022809D0022084F82C002068FFF76EFACF
:100E7000012084F82C00002010BD70B5044690F8C5
:100E80002C000D4602280CD0022084F82C0020688B
:100E9000FFF762FA2868022804D0012084F82C00A9
:100EA000002070BD0520F9E74FF0E0210428086913
:100EB00003D020F004000861704740F00400FAE716
:100EC00010B5401EB0F1807F01D3012010BD4FF05E
:100ED000E02460610F21601700F00EF90020A0618E
:100EE00007202061002010BD704790F8390070473E
:100EF00038B5016804460868CA68C0F3000002F407
:100F0000807238B132B1086848680090E06B40F0F8
:100F10000100E06308684A69C0F3400002F0010282
:100F200038B132B1086848680090E06B40F00400C6
:100F3000E06308684A69C0F3800002F0010238B13A
:100F400032B1086848680090E06B40F00200E0634E
:100F500008684A69C0F3C00002F0010238B132B13A
:100F6000086848680090E06B40F00800E06308689B
:100F7000C968C0F3401001F0200118B111B120463A
:100F800000F0AEF920680168C068C1F3C01100F03C
:100F9000800019B110B1204600F0F5F92168086809
:100FA000CA68C0F3801002F04002012568B162B146
:100FB000CA68204622F04002CA6094F839103229EB
:100FC0000CD080F8395000F06DF8E06B002804D0A8
:100FD00084F839502046FFF787FF38BD222180F87A
:100FE0003910F0E790F83930012B01D0122B2BD1BA
:100FF00031B32AB390F83830012B25D0012380F883
:10100000383081628285C2850022C26390F839102F
:10101000122917D0222180F839100168CB6843F4D7
:101020008073CB6001684B6943F001034B6180F82A
:1010300038200068C16841F02001C160002070477D
:10104000012070473221E6E70220704730B5006882
:10105000114988420CD1114A5088010408D4114624
:10106000440409784FF0000306D50A2901D05380C3
:1010700030BD40F400400DE00D2909D0C0F30D044F
:10108000074D401C80B229555080C728EFD830BD8D
:1010900040F48040508030BD001001401800002016
:1010A000440000207047FEE7104810B5016886B084
:1010B00041F0020101600068012100F0020005908A
:1010C0000320CDE90210CDE90001094C6946204614
:1010D000FFF7A4F9012211462046FFF78DFA0122FD
:1010E00002212046FFF788FA06B010BD30380240D2
:1010F00000040240FEE770470907090E002806DADF
:1011000000F00F0000F1E02080F8141D704700F19E
:10111000E02080F8001470477047000000B51648C2
:1011200087B014490022C0E9001201218160082122
:101130001023C0E90313402343614FF4C073C0E997
:1011400006320A0202624A0242628A028262022075
:10115000CDE9000106210291CDE90310059006902A
:1011600069460548FFF7E8FD034800F007F807B0B7
:1011700000BD0000400100A04C01002010B500237C
:1011800001221146184600F021F84FF4FA7000F0E1
:1011900069F9002301220221184600F017F8002304
:1011A00008220321184600F011F84FF40C730122B5
:1011B0000421002000F00AF8BDE8104040F2AB2105
:1011C0000148FFF749BE00004C0100201FB5002474
:1011D00010B1012802D002E0102400E00824CDE97B
:1011E0000014CDE902234FF4805269460348FFF70B
:1011F00044FE002800D0012004B010BD4C010020A6
:101200007047000070B51E4C92B00025266846F06D
:1012100080562660246804F080541194194C266886
:1012200046F44046266024680DF1240C04F4404442
:101230001194012400940194022406948CE80D007A
:101240006605CDE907616846FFF7E8FB00B1FEE7F8
:10125000FFF748FA00B1FEE70CA90F2081E8310042
:101260004FF4A0500F904FF48050109005210CA81F
:10127000FFF77CFA002800D0FEE712B070BD000036
:101280004038024000700040FFF7C2B910480168C2
:1012900041F4700101600F48016841F001010160F3
:1012A0000C4A00210832116002680B4B1A400260A0
:1012B000031D0A4A1A60026822F48022026005486F
:1012C0000C30016002495806803908607047000000
:1012D00088ED00E000380240FFFFF6FE10300024E9
:1012E00010B590F83910222903D0322901D00220FC
:1012F00010BD8168B1F5805F11D0016900290168D6
:101300001FD0496801F07F03816A4A1C82620B701A
:10131000C18D491E0904090CC18518D02FE002694E
:10132000816A002A0268526805D0D2B20A80816AB6
:10133000491C8162ECE7C2F308020A80816A891CB9
:10134000F7E74A68816A4B1C83620A70E0E701682C
:10135000CA6822F02002CA6090F83910322910D0F1
:101360000168CA6822F48072CA6001684A6922F082
:1013700001024A61012180F83910FFF767FE002061
:1013800010BD1221F7E790F83910122903D0322945
:1013900001D0022070478168B1F5805F016A0BD0EF
:1013A0004A1C0262026809785160C18C491E090416
:1013B000090CC1840ED017E009880268C1F3080146
:1013C000516001690029016A02D0491C0162ECE701
:1013D000891CFBE70168CA6822F08002CA600068C5
:1013E000C16841F04001C1600020704770B5002421
:1013F0000C4D0D48FFF77CFD02E0641CAC4204D8A4
:101400000948FFF772FD0128F7D1002402E0641CAF
:10141000AC4206D8012205490348FFF7E3FD002846
:10142000F5D170BDFFFF01000C0100201800002065
:10143000FEE7704710B504460420FFF735FD01486C
:10144000046010BD1400002070B5054600244FF460
:101450007A7603E0304600F005F8641CAC42F9D31C
:1014600070BD000070B54FF0E02500216C69094A9D
:10147000AB6912685043AA699A42FCD002D2A3EB2E
:10148000020302E0A4EB02063344194413468142EE
:10149000F1D370BD14000020FFF7C2F80823022228
:1014A00019214FF4B470FFF7ADFEB420FFF7C2FF6F
:1014B000FFF7FAFDFFF732FE002000F027F80120C9
:1014C00000F024F8022000F021F80F4D4FF4FA74D8
:1014D000002202212846FFF78FF8012211462846F4
:1014E000FFF78AF82046FFF7AFFF012202212846C6
:1014F000FFF782F8002201212846FFF77DF82046F9
:10150000FFF7A2FFE4E700000004024030B5044604
:101510000748084D002150F82400820005EB8400A4
:10152000406900F027F80120291981F8200030BD1A
:101530008C1500081C00002010B50C4B0C4C002230
:1015400053F82030114604EB800005E0446954F85C
:10155000214004B1521C491C8B42F7D84FF47A70D9
:101560004243B2FBF3F080B210BD00008C150008BE
:101570001C00002001E000F8011B521EFBD2704746
:101580004FF04070E1EE100A70470000000A0000C2
:10159000000F0700C00300004000000040000000F2
:1015A000400000000080020000C0C30100F0000005
:1015B00000000000010203040102030406070809F9
:1015C000E01500080000002044000000E8010008C9
:1015D00024160008440000209CAF0200040200080A
:1015E0000024F400000000000000000001020304D9
:1015F0000607080900000000000000000D150008A3
:10160000391500088001002000401FC000000010B4
:10161000808102200000E3C100F000100000000003
:0416200000000000C6
:04000005080001AD41
:00000001FF
